:100000000C9434000C9446000C9446000C9446006A
:100010000C9446000C9446000C9446000C94460048
:100020000C9446000C9446000C9446000C94460038
:100030000C9446000C9446000C9446000C94460028
:100040000C9446000C9446000C9446000C94460018
:100050000C9446000C9446000C9446000C94460008
:100060000C9446000C94460011241FBECFEFD8E03C
:10007000DEBFCDBF11E0A0E0B1E001C01D92A23013
:10008000B107E1F70E94D6000C94E0000C94000048
:1000900081E088B9109201011092000121E0809165
:1000A0000001909101010397ECF43FEF89E698E19C
:1000B000315080409040E1F700C0000088B1880FC7
:1000C00088B988B1882319F088B1813140F328B903
:1000D000809100019091010101969093010180931C
:1000E0000001DDCF089581E088B9109201011092DE
:1000F000000181E090E02091000130910101233066
:10010000310534F52FEF39E648E1215030404040C9
:10011000E1F700C0000028B1009711F0220F01C0E4
:10012000269528B928B1203119F028B1213011F4D1
:1001300021E0822728B12130F1F620910001309191
:1001400001012F5F3F4F3093010120930001D3CF76
:100150003FEF49E688E1315040408040E1F700C080
:100160000000089585E188B9109201011092000104
:100170002FE180910001909101014497B4F43FEF89
:1001800089E698E1315080409040E1F700C00000DE
:1001900088B1822788B98091000190910101019670
:1001A0009093010180930001E4CF089587B18F619E
:1001B00087B90E9448000E9473000E94B200F9CFE4
:0401C000F894FFCFE1
:00000001FF
