:100000000C9434000C943E000C943E000C943E0082
:100010000C943E000C943E000C943E000C943E0068
:100020000C943E000C943E000C943E000C943E0058
:100030000C943E000C943E000C943E000C943E0048
:100040000C943E000C943E000C943E000C943E0038
:100050000C943E000C943E000C943E000C943E0028
:100060000C943E000C943E0011241FBECFEFD8E04C
:10007000DEBFCDBF0E9440000C947C000C940000B9
:10008000259A41E050E080E090E070E225B127271A
:1000900025B920E030E0281739074CF4EFE9FFE0FC
:1000A0003197F1F700C000002F5F3F4FF4CF9C0164
:1000B00097FF02C020E030E065B1672765B92233C1
:1000C00031054CF4EFE9FFE03197F1F700C0000093
:1000D0002F5F3F4FF4CF4115510511F0019601C03C
:1000E00001978233910519F440E050E0CFCF00979B
:0C00F00069F641E050E0CACFF894FFCF61
:00000001FF
